:100000000C9434000C9451000C9451000C94510049
:100010000C94A0010C9451000C9451000C945100CC
:100020000C9451000C9451000C9451000C94330921
:100030000C9451000C9451000C9429090C9451001B
:100040000C9451000C9451000C9451000C945100EC
:100050000C9451000C9451000C9451000C945100DC
:100060000C9451000C94510011241FBECFEFD8E026
:10007000DEBFCDBF11E0A0E0B1E0E4EFF4E102C0EB
:1000800005900D92A035B107D9F721E0A0E5B1E0C8
:1000900001C01D92A23AB207E1F70E94F9070C9441
:1000A000780A0C9400007F928F929F92AF92BF9239
:1000B000CF92DF92EF92FF920F931F93CF93DF9334
:1000C00084E680937C00EAE7F0E083EA8083109284
:1000D0007B0084E08093680080936D007894808139
:1000E000806480832FEF84E39CE021508040904027
:1000F000E1F700C00000209179002223D9F130E01F
:1001000040E050E060E07EEE82E090E00E94AF09C7
:1001100069017A01022F1D2DDE2DCF2D49015A01D3
:10012000BB0C8808982C5401B82DA82DF82D782CDC
:1001300020935001D0925101E0925201F09253016C
:10014000809254018092550180925601809257010D
:100150003D2D4E2D5F2D682D782D882D982D28361C
:10016000304141055105610571058105910509F091
:10017000E0F41FC080EA809350018FE0809351012A
:100180001092520110925301109254011092550195
:10019000109256011092570100EA1FE0D0E0C0E033
:1001A000B0E0A0E0F0E0712C19C086E18093580126
:1001B00034C02C2D3D2D4E2D5F2D682D782D882D92
:1001C000982D23373E404105510561057105810594
:1001D000910509F018F4109258011FC0202F312FFB
:1001E0004D2F5C2F6B2F7A2F8F2F972D24573E404A
:1001F0004109510961097109810991090F2EF6E13F
:10020000AF2EF02DB12CC12CD12CE12CF12C00E023
:1002100010E00E94D00920935801EAE7F0E0108234
:1002200085E680937C0083EA808310927B0084E0E3
:100230008093680080936D007894808180648083CF
:10024000DF91CF911F910F91FF90EF90DF90CF90B2
:10025000BF90AF909F908F907F90089510927C01F7
:1002600010927D0110927E0110927F011092800108
:1002700010928101109282011092830110928401E8
:1002800010928501109286011092870110928801C8
:100290001092890110928A0110928B0110927401C0
:1002A00010927501109276011092770110927801E8
:1002B0001092790110927A0110927B01E8E6F0E049
:1002C000808182608083ECE6F0E0808182608083C0
:1002D0007894089520915A0130915B0140915C011E
:1002E00050915D0160915E0170915F0180916001AC
:1002F00090916101A0E00E94360AE9F050917C01E2
:1003000040917D0130917E0120917F0110927C010E
:1003100010927D0110927E0110927F011092800157
:10032000109281011092820110928301652F742F27
:10033000832F922F089560E070E080E090E00895B0
:100340001F920F920FB60F921124AF92BF92CF92CD
:10035000DF92EF92FF920F931F932F933F934F9350
:100360005F936F937F938F939F93AF93BF93CF933D
:10037000DF93EF93FF9380916201811124C010926B
:100380007C0110927D0110927E0110927F011092EB
:10039000800110928101109282011092830181E00C
:1003A0008093620110925A0110925B0110925C01DD
:1003B00010925D0110925E0110925F011092600137
:1003C00010926101F1C080910001882309F4ECC012
:1003D0008091A0019091A101A0907401B09075014D
:1003E000C0907601D0907701E0907801F09079018B
:1003F00000917A0110917B01282F392F40E050E0C5
:1004000060E070E080E090E00E942D0A209384017B
:100410003093850140938601509387016093880152
:100420007093890180938A0190938B01E6B1E695E0
:10043000E1702091840130918501409186015091B5
:100440008701609188017091890180918A01909162
:100450008B01283E33404105510561057105810539
:10046000910599F090F010927C0110927D0110920C
:100470007E0110927F0110928001109281011092F2
:100480008201109283011092590110925A01109228
:100490005B0110925C0110925D0110925E0110925E
:1004A0005F011092600110926101E13009F07CC09F
:1004B000E09159018AEE8E0F8C3008F049C02091EE
:1004C00084013091850140918601509187016091AE
:1004D00088017091890180918A0190918B01A1E13D
:1004E0000E94360AA9F1A0F121E030E08AEE8E0FD9
:1004F00002C0220F331F8A95E2F7832F880F880BE3
:1005000090917C01922B90937C0190917D01932B93
:1005100090937D0190917E01982B90937E01909114
:100520007F01982B90937F0190918001982B90935D
:10053000800190918101982B90938101909182018B
:10054000982B9093820190918301892B8093830152
:10055000EF5FE09359010091A0011091A101009378
:100560007401109375011092760110927701109228
:1005700078011092790110927A0110927B01E23297
:1005800099F481E080935A0110925B0110925C0112
:1005900010925D0110925E0110925F011092600155
:1005A0001092610110925901FF91EF91DF91CF916B
:1005B000BF91AF919F918F917F916F915F914F917B
:1005C0003F912F911F910F91FF90EF90DF90CF906F
:1005D000BF90AF900F900FBE0F901F9018959B018A
:1005E000220F331F620F731F219A25B12D7F35B162
:1005F00032604FB7F8946115710509F421C0FC0110
:10060000680F791F919188E035B997FF25B9990F47
:10061000000000C025B9000000C000C000C000C03C
:1006200000C000C000C000C000C000C000C000C0CA
:1006300000C000C000C08A9539F7E617F70711F728
:100640004FBF85E88A95F1F700000895EF92FF9279
:100650000F931F93CF93DF93C5E9D1E009E811E031
:10066000F12C0F2EFAE0EF2EF02DE982E882EA82DB
:1006700023E02F1528F4F80111821082128203C0A2
:100680001DAE1CAE1EAE68E170E085E991E00E94EF
:10069000EF02FFEB2AED80E0F15020408040E1F7CF
:1006A00000C00000F39423960D5F1F4F98E1F912EC
:1006B000DCCFDF91CF911F910F91FF90EF900895C4
:1006C000EF92FF921F93CF93DF9380910D018823C8
:1006D00009F441C0EEE0F1E010828AE081838EE10E
:1006E000828339C0F70180818A87818189878281ED
:1006F0008B87133018F0198218821A82239668E1CA
:1007000070E085E991E00E94EF028FE59AEE019793
:10071000F1F700C000001F5F163121F72FC0F7016D
:10072000808189838181888382818A83133118F44F
:100730001A8619861B86239768E170E085E991E0A7
:100740000E94EF028FE59AEE0197F1F700C00000DA
:10075000115029F723C0E5E9F1E0AEE0B1E08C915A
:10076000818311968C911197808312968C911297A8
:100770008283CFE8D1E010E07D01C1CFEEE0F1E06F
:1007800080818093D50181818093D401828180937F
:10079000D601C1EDD1E015E17F01CECFDF91CF9140
:1007A0001F91FF90EF900895E5E9F1E08DED91E064
:1007B0001182108212823396E817F907C9F768E1AF
:1007C00070E085E991E00E94EF020895BF92CF9218
:1007D000DF92EF92FF920F931F93CF93DF936B0102
:1007E0007C010E94D403E5E9F1E011828EE180836F
:1007F000128268E170E0CF010E94EF022FEB8EECD5
:1008000092E0215080409040E1F700C00000C5E92F
:10081000D1E000EE11E00F2EFEE1BF2EF02DC0FE64
:100820000AC0B9821882BA8268E170E085E991E075
:100830000E94EF0209C0198218821A8268E170E0F2
:1008400085E991E00E94EF02F694E794D794C7946B
:100850002FE788E391E0215080409040E1F700C00D
:1008600000002396C017D107D1F62FEF89E698E153
:10087000215080409040E1F700C00000DF91CF910F
:100880001F910F91FF90EF90DF90CF90BF90089550
:10089000FC01408131812281E5E9F1E08DED91E0BB
:1008A0004183308322833396E817F907C9F768E15B
:1008B00070E085E991E00E94EF020895CF92DF9207
:1008C000EF92FF920F931F93CF93DF9300D01F926D
:1008D000CDB7DEB74091790020916A0130E0F9018F
:1008E000EF5FFE4F6081662399F0F901E95FFE4FEB
:1008F0008081E42FF0E0E81BF10959E15E9FC0011F
:100900005F9F900D112470E00E949B0960938C0101
:10091000F901E95FFE4F8081242F30E090E00597D8
:10092000281739071CF40E9426037EC090918C0181
:1009300093304CF484E189831A821B82CE010196A4
:100940000E94480471C0809163018F5F853019F067
:100950008093630102C010926301A4E6B1E0E091CC
:100960006301F0E0EC59FE4F90832C9111968C912D
:10097000119790E0820F911D12962C911297820F81
:10098000911D13962C911397820F911D14962C9103
:10099000820F911D65E070E00E949B09962F609385
:1009A0008C01623124F481E1C82EC61A01C0C12C29
:1009B000CC0C8C2D880F880FC80E99301CF088EF56
:1009C000860F01C080E0D82EDD0C8D2D880F880F9A
:1009D000D80E0F2EF5E9EF2EF1E0FF2EF02D00E0FE
:1009E00010E080918C01082E000C990B0817190754
:1009F00054F4F701C182D0821282B80185E991E0F6
:100A00000E94EF0209C0F701118210821282B80120
:100A100085E991E00E94EF020F5F1F4FF3E0EF0EB8
:100A2000F11C09311105E9F62FE788E391E0215027
:100A300080409040E1F700C000000F900F900F90B1
:100A4000DF91CF911F910F91FF90EF90DF90CF90AA
:100A50000895BF92CF92DF92EF92FF920F931F9370
:100A6000CF93DF9300D01F92CDB7DEB7D09058015F
:100A7000D1100BC084E689831A821B82CE010196B5
:100A80000E94480420E030E005C02D2D30E02231E6
:100A9000310524F481E1C82EC21A01C0C12C88E0BE
:100AA0008D1530F40F2EF8EFBF2EF02DBD0C01C0C8
:100AB000B12C0F2EF5E9EF2EF1E0FF2EF02D00E026
:100AC00010E00D1550F4F701C182B0821282B80116
:100AD00085E991E00E94EF0209C0F70111821082BE
:100AE0001282B80185E991E00E94EF020F5F1F4F6B
:100AF000F3E0EF0EF11C0931110519F70F900F907B
:100B00000F90DF91CF911F910F91FF90EF90DF90A9
:100B1000CF90BF900895CF93DF93C1E1D1E0A0E0E3
:100B2000B0E02A2FCD011396AD018A179B07A4F4DC
:100B3000788169813A81FC01EE0FFF1F8E0F9F1FA4
:100B4000FC01EB56FE4F7183608332832F5F822F4F
:100B500090E0841795077CF32396A531B10509F73A
:100B60001092D5011092D4011092D60168E170E084
:100B700085E991E00E94EF02DF91CF910895E5E9C8
:100B8000F1E090E090FD04C081836083428303C064
:100B90001182108212829F5F3396983199F768E133
:100BA00070E085E991E00E94EF020895843F2BE018
:100BB000920709F4A5C07CF485352AE0920709F470
:100BC00079C0843D2BE0920709F487C085319A40B3
:100BD00009F0A2C036C081372EE09207F9F02CF45C
:100BE00081339E4009F453C0089580332FE092076B
:100BF00021F080379F40C1F10895EEE0F1E0A1E1DE
:100C0000B1E08C91808311968C911197818312961B
:100C10008C918283CF010E9448040895EEE0F1E0B8
:100C2000A1E1B1E013968C911397808314968C9177
:100C30001497818315968C918283CF010E9448047A
:100C40000895EEE0F1E0A1E1B1E016968C911697DF
:100C5000808317968C911797818318968C91828345
:100C6000CF010E9448040895EEE0F1E0A1E1B1E077
:100C700019968C91199780831A968C911A97818373
:100C80001B968C918283CF010E9448040895EEE068
:100C9000F1E0A1E1B1E01C968C911C9780831D9638
:100CA0008C911D9781831E968C918283CF010E9427
:100CB00048040895EEE0F1E0A1E1B1E01F968C91C7
:100CC0001F97808350968C915097818351968C9179
:100CD0008283CF010E9448040895EEE0F1E0A1E193
:100CE000B1E052968C915297808353968C91539792
:100CF000818354968C918283CF010E944804089589
:100D000010926D0110920D0110926F00109262010D
:100D1000109273010E94D4030895843D2BE0920742
:100D200009F452C0A4F485352AE0920709F445C0BD
:100D300024F485319A4061F152C0853D2AE0920742
:100D400009F446C084369B4009F446C048C0813748
:100D50002EE09207B9F044F481332EE0920731F18E
:100D600081369E40F1F13BC080332FE0920721F0A5
:100D700080379F40A1F033C010926A0181E08093D8
:100D80007301089581E080936A018093730108954F
:100D900082E080936A0181E080937301089583E08B
:100DA00080936A0181E080937301089584E08093C9
:100DB0006A0181E080937301089585E080936A0160
:100DC00081E080937301089583E080937301089517
:100DD00082E0809373010895109273010895109238
:100DE0007301089581332EE0920709F459C04CF441
:100DF00085312AE0920791F185359A4009F461C066
:100E000071C080332FE0920749F080372FE09207BE
:100E1000B1F181379E4009F065C010C060930701B1
:100E200010926A0181E08093730110926B0110921D
:100E30006F00109262010E94D4030895609308012C
:100E400081E080936A018093730110926B0110928C
:100E50006F00109262010E94D4030895609309010B
:100E600082E080936A0181E08093730110926B01AC
:100E700010926F00109262010E94D4030895609353
:100E80000A0183E080936A0181E0809373011092EC
:100E90006B0110926F00109262010E94D4030895BA
:100EA00060930B0184E080936A0181E08093730179
:100EB00010926B0110926F00109262010E94D40395
:100EC000089560930C0185E080936A0181E080932E
:100ED000730110926B0110926F00109262010E94D8
:100EE000D403089544E164E184E10E94BF050895BC
:100EF0002F923F924F925F926F927F928F929F922A
:100F0000AF92BF92CF92DF92EF92FF920F931F9317
:100F1000CF93DF93209050013090510140905201C7
:100F2000509053016090540170905501809056018B
:100F300090905701C1E0D1E0A22CB32CC42CD52C49
:100F4000E62CF72C082D192D20E638E442E050E07D
:100F500060E070E080E090E00E94D009288320EEFD
:100F600034E740E050E060E070E080E090E00E9414
:100F7000D009298320E53FEA40E050E060E070E0DE
:100F800080E090E00E94D0092A8320EC39EE40E016
:100F900050E060E070E080E090E00E94D0092B8398
:100FA00020E63CE141E050E060E070E080E090E06D
:100FB0000E94D0092C8328EB3AE541E050E060E044
:100FC00070E080E090E00E94D0092D83DF91CF9106
:100FD0001F910F91FF90EF90DF90CF90BF90AF9057
:100FE0009F908F907F906F905F904F903F902F9049
:100FF00008950E9453000E9478070E942E01219AB2
:101000003D983C98399877247394C0E5D1E00F2E31
:10101000F9E78F2E912CF02D0F2EFFE62F2E312C7D
:10102000F02D0F2EFEE64F2EF1E05F2EF02D809179
:10103000620181111EC01092720110920001809114
:101040007301813049F028F0823049F0833071F02B
:10105000EECF0E946003EBCF0E945E04E8CF6FEA00
:101060007EE680E090E00E94E603E1CF0E94290541
:10107000DECF8091720181111DC04FE06AE00E94B5
:10108000BF05709272010E9403090091A0011091A6
:10109000A10100938D0110938E0110928F01109287
:1010A000900110929101109292011092930110926E
:1010B0009401BDCF2091A0013091A101A0908D019C
:1010C000B0908E01C0908F01D0909001E09091017E
:1010D000F09092010091930110919401A901352F94
:1010E00040E050E060E070E080E090E00E942D0A77
:1010F000243F314041055105610571058105910588
:1011000009F008F494CF70920001FFE728E381E032
:10111000F15020408040E1F700C000000E946A01C9
:10112000DC01CB0180936E0190936F01A09370015D
:10113000B0937101E6E2F1E020E04191519160E06D
:1011400070E084179507A607B70709F4272DEC1759
:10115000FD0799F720936C01222309F468CF8439A5
:10116000EBE09E07A105B10569F420916D01211105
:101170003BC020916B01211123C070926D010E9430
:101180008B0555CF8136FEE09F07A105B10581F49F
:1011900020916B01211110C020916D01211124C0FB
:1011A00070926B0144E164E184E10E94BF053FCF8E
:1011B0000097A105B105A1F020916D01211114C086
:1011C00020916B01211118C0F1011082109262016F
:1011D0000E94D403F201808191810E948D0627CF65
:1011E00020916D01222319F00E94D60520CF209175
:1011F0006B01222309F41BCFF40160816093690124
:101200000E94F20614CF82E084BD95E095BD109255
:1012100080009AE0909381001092820080936F008A
:1012200080E887BD1092890084E6809388007894D6
:10123000109299011092980110929F0110929E01B4
:1012400010929B0110929A0110929D0110929C01A4
:1012500008951F920F920FB60F9211240F900FBE98
:101260000F901F9018951F920F920FB60F92112496
:101270002F938F939F93F8948091A0019091A10157
:1012800001969093A1018093A00180919801909183
:10129000990101969093990180939801809198010A
:1012A00090919901883E9340E9F580919E0190913B
:1012B0009F01019690939F0180939E011092990146
:1012C0001092980180919E0190919F01CC9769F4B2
:1012D00080919A0190919B01019690939B0180933C
:1012E0009A0110929F0110929E0180919A01909113
:1012F0009B01CC9769F480919C0190919D0101968E
:1013000090939D0180939C0110929B0110929A01F1
:1013100080919C0190919D01489721F410929D012C
:1013200010929C0178949F918F912F910F900FBEF6
:101330000F901F90189597FB072E16F4009407D076
:1013400077FD09D00E94420A07FC05D03EF4909533
:1013500081959F4F0895709561957F4F0895052E53
:1013600097FB1EF400940E94C60957FD07D00E9407
:10137000560A07FC03D04EF40C94C60950954095CC
:10138000309521953F4F4F4F5F4F08959095809531
:10139000709561957F4F8F4F9F4F0895689401C05E
:1013A000E8948F929F92CF93DF930E94DC09DF91A4
:1013B000CF919F908F90089588249924F401E4019F
:1013C000B0E49F93AA279A158B049C04ED05FE05B3
:1013D000CF05D007A10798F4AD2FDC2FCF2FFE2F1C
:1013E000E92D982C892E982F872F762F652F542F33
:1013F000432F322F2227B85031F7BF9127C01B2E21
:10140000BF91BB27220F331F441F551F661F771F35
:10141000881F991F881C991CEE1FFF1FCC1FDD1F02
:10142000AA1FBB1F8A149B04EC05FD05CE05DF0532
:10143000A007B10748F08A189B08EC09FD09CE09FE
:10144000DF09A00BB10B21601A94E1F62EF4940190
:10145000AF01BE01CD01000C08952A193B094C09CA
:101460005D096E097F09800B910B08950024A7FD8B
:1014700000942A1730054005500560057005800569
:1014800090050895AA1BBB1B51E107C0AA1FBB1FF3
:10149000A617B70710F0A61BB70B881F991F5A9500
:1014A000A9F780959095BC01CD010895A1E21A2E6F
:1014B000AA1BBB1BFD010DC0AA1FBB1FEE1FFF1FF8
:1014C000A217B307E407F50720F0A21BB30BE40B48
:1014D000F50B661F771F881F991F1A9469F760958F
:1014E0007095809590959B01AC01BD01CF01089549
:0414F000F894FFCF9E
:1014F400011C1C1C1C1C1C1612161E19170100149E
:1015040014C81400C8001400C8C800C8000000C8EB
:10151400C83200C8C8C8C40B940B840BB40BF40BBA
:10152400C40B800FA10E600F910E610E200F300FBF
:10153400710E150A700F310E550AD40BD50A640BBF
:00000001FF
