:100000000C9434000C9451000C9451000C94510049
:100010000C9464010C9451000C9451000C94510008
:100020000C9451000C9451000C9451000C947408E1
:100030000C9451000C9451000C946A080C945100DB
:100040000C9451000C9451000C9451000C945100EC
:100050000C9451000C9451000C9451000C945100DC
:100060000C9451000C94510011241FBECFEFD8E026
:10007000DEBFCDBF11E0A0E0B1E0E4EAF6E102C0EE
:1000800005900D92A635B107D9F721E0A6E5B1E0BC
:1000900001C01D92A73AB207E1F70E943C070C94F9
:1000A000500B0C9400007F928F929F92AF92BF9260
:1000B000CF92DF92EF92FF920F931F93CF93DF9334
:1000C00084E680937C00EAE7F0E083EA8083109284
:1000D0007B0084E08093680080936D007894808139
:1000E000806480832FEF84E39CE021508040904027
:1000F000E1F700C00000209179002223D9F130E01F
:1001000040E050E060E07EEE82E090E00E94870AEE
:1001100069017A01022F1D2DDE2DCF2D49015A01D3
:10012000BB0C8808982C5401B82DA82DF82D782CDC
:1001300020935601D0925701E0925801F092590154
:1001400080925A0180925B0180925C0180925D01F5
:100150003D2D4E2D5F2D682D782D882D982D28361C
:10016000304141055105610571058105910509F091
:10017000E0F41FC080EA809356018FE0809357011E
:10018000109258011092590110925A0110925B017D
:1001900010925C0110925D0100EA1FE0D0E0C0E027
:1001A000B0E0A0E0F0E0712C19C086E180935E0120
:1001B00034C02C2D3D2D4E2D5F2D682D782D882D92
:1001C000982D23373E404105510561057105810594
:1001D000910509F018F410925E011FC0202F312FF5
:1001E0004D2F5C2F6B2F7A2F8F2F972D24573E404A
:1001F0004109510961097109810991090F2EF6E13F
:10020000AF2EF02DB12CC12CD12CE12CF12C00E023
:1002100010E00E94A80A20935E01EAE7F0E0108255
:1002200085E680937C0083EA808310927B0084E0E3
:100230008093680080936D007894808180648083CF
:10024000DF91CF911F910F91FF90EF90DF90CF90B2
:10025000BF90AF909F908F907F9008952091600104
:10026000309161014091620150916301609164019C
:10027000709165018091660190916701A0E00E94F4
:100280000E0BE9F050918101409182013091830180
:1002900020918401109281011092820110928301B9
:1002A00010928401109285011092860110928701AC
:1002B00010928801652F742F832F922F089560E08C
:1002C00070E080E090E008951F920F920FB60F92B9
:1002D0001124AF92BF92CF92DF92EF92FF920F93D1
:1002E0001F932F933F934F935F936F937F938F93BE
:1002F0009F93AF93BF93CF93DF93EF93FF9380913F
:100300006801811124C01092810110928201109223
:10031000830110928401109285011092860110923F
:1003200087011092880181E080936801109260013A
:1003300010926101109262011092630110926401A7
:10034000109265011092660110926701F1C08091D0
:100350000001882309F4ECC08091A5019091A601C9
:10036000A0907901B0907A01C0907B01D0907C017F
:10037000E0907D01F0907E0100917F01109180015D
:10038000282F392F40E050E060E070E080E090E0FE
:100390000E94050B2093890130938A0140938B01C1
:1003A00050938C0160938D0170938E0180938F0127
:1003B00090939001E6B1E695E1702091890130912A
:1003C0008A0140918B0150918C0160918D01709157
:1003D0008E0180918F0190919001283E334041051C
:1003E0005105610571058105910599F090F0109214
:1003F0008101109282011092830110928401109267
:100400008501109286011092870110928801109246
:100410005F011092600110926101109262011092CE
:1004200063011092640110926501109266011092AE
:100430006701E13009F07CC0E0915F018AEE8E0F28
:100440008C3008F049C02091890130918A01409197
:100450008B0150918C0160918D0170918E01809182
:100460008F0190919001A1E10E940E0BA9F1A0F1E2
:1004700021E030E08AEE8E0F02C0220F331F8A95F2
:10048000E2F7832F880F880B90918101922B909334
:10049000810190918201932B90938201909183012D
:1004A000982B9093830190918401982B90938401D1
:1004B00090918501982B9093850190918601982BBE
:1004C0009093860190918701982B9093870190914A
:1004D0008801892B80938801EF5FE0935F01009191
:1004E000A5011091A6010093790110937A01109251
:1004F0007B0110927C0110927D0110927E0110927E
:100500007F0110928001E23299F481E080936001D2
:1005100010926101109262011092630110926401C5
:1005200010926501109266011092670110925F01AE
:10053000FF91EF91DF91CF91BF91AF919F918F91FB
:100540007F916F915F914F913F912F911F910F91EB
:10055000FF90EF90DF90CF90BF90AF900F900FBEC5
:100560000F901F9018959B01220F331F620F731F6E
:10057000219A25B12D7F35B132604FB7F8946115BE
:10058000710509F421C0FC01680F791F919188E081
:1005900035B997FF25B9990F000000C025B90000B3
:1005A00000C000C000C000C000C000C000C000C04B
:1005B00000C000C000C000C000C000C000C08A95DC
:1005C00039F7E617F70711F74FBF85E88A95F1F776
:1005D00000000895EF92FF921F93CF93DF938091D5
:1005E0001301882309F441C0E4E1F1E010828AE0BC
:1005F00081838EE1828339C0F70180818A8781817E
:10060000898782818B87133018F0198218821A82A9
:10061000239668E170E08AE991E00E94B3028FE5D9
:100620009AEE0197F1F700C000001F5F163121F725
:100630002FC0F701808189838181888382818A83A9
:10064000133118F41A8619861B86239768E170E027
:100650008AE991E00E94B3028FE59AEE0197F1F7E3
:1006600000C00000115029F723C0EAE9F1E0A4E13D
:10067000B1E08C91818311968C91119780831296B1
:100680008C9112978283C4E9D1E010E07D01C1CF43
:10069000E4E1F1E080818093DA0181818093D901E6
:1006A00082818093DB01C6EDD1E015E17F01CECFE1
:1006B000DF91CF911F91FF90EF900895EAE9F1E06B
:1006C00082EE91E01182108212823396E817F907C8
:1006D000C9F768E170E08AE991E00E94B3020895E9
:1006E00090917900809169018F5F853019F0809336
:1006F000690102C010926901EAE6F1E0A091690186
:10070000B0E0A659BE4F9C932081818190E0820F7A
:10071000911D2281820F911D2381820F911D2481C1
:10072000820F911D65E070E00E94730A7727072E03
:10073000000C880B990B0E947A092DEC3CEC4CE4E0
:100740005EE30E94060A20E030E040E050E40E94B0
:10075000DC080E94490980910101681791F080919D
:100760000201681781F080910301681771F0809190
:100770000401681761F080910501681751F09AE053
:1007800009C098EC07C098EC05C098EC03C098EC41
:1007900001C098EC70E0FB01EE0FFF1FE60FF71FA2
:1007A000E656FE4F8AE081839083FB013397CF01A9
:1007B000880F991FE80FF91FE656FE4F118210822D
:1007C0006D5F7F4FFB01EE0FFF1F6E0F7F1FFB0161
:1007D000E656FE4F11821082128268E170E08AE9CB
:1007E00091E00E94B3020895BF92CF92DF92EF9200
:1007F000FF920F931F93CF93DF936B017C010E94B5
:100800005E03EAE9F1E011828EE18083128268E101
:1008100070E0CF010E94B3022FEB8EEC92E02150EA
:1008200080409040E1F700C00000CAE9D1E005EE49
:1008300011E00F2EFEE1BF2EF02DC0FE0AC0B982DE
:100840001882BA8268E170E08AE991E00E94B302FE
:1008500009C0198218821A8268E170E08AE991E081
:100860000E94B302F694E794D794C7942FE788E3E5
:1008700091E0215080409040E1F700C000002396B5
:10088000C017D107D1F62FEF89E698E121508040BB
:100890009040E1F700C00000DF91CF911F910F91D0
:1008A000FF90EF90DF90CF90BF900895FC014081C2
:1008B00031812281EAE9F1E082EE91E041833083E7
:1008C00022833396E817F907C9F768E170E08AE9EF
:1008D00091E00E94B3020895BF92CF92DF92EF920F
:1008E000FF920F931F93CF93DF9300D01F92CDB74A
:1008F000DEB7D0905E01D1100BC084E689831A82E6
:100900001B82CE0101960E94560420E030E005C013
:100910002D2D30E02231310524F481E1C82EC21A98
:1009200001C0C12C88E08D1530F40F2EF8EFBF2EDA
:10093000F02DBD0C01C0B12C0F2EFAE9EF2EF1E025
:10094000FF2EF02D00E010E00D1550F4F701C182EC
:10095000B0821282B8018AE991E00E94B30209C014
:10096000F701118210821282B8018AE991E00E9497
:10097000B3020F5F1F4FF3E0EF0EF11C09311105B9
:1009800019F70F900F900F90DF91CF911F910F915A
:10099000FF90EF90DF90CF90BF900895CF93DF93BB
:1009A000C7E1D1E0A0E0B0E02A2FCD011396AD0160
:1009B0008A179B07A4F4788169813A81FC01EE0FC4
:1009C000FF1F8E0F9F1FFC01E656FE4F7183608351
:1009D00032832F5F822F90E0841795077CF3239654
:1009E000A531B10509F71092DA011092D9011092E0
:1009F000DB0168E170E08AE991E00E94B302DF91D7
:100A0000CF910895EAE9F1E090E090FD04C0818380
:100A10006083428303C01182108212829F5F3396EB
:100A2000983199F768E170E08AE991E00E94B30299
:100A30000895843F2BE0920709F4A5C07CF4853526
:100A40002AE0920709F479C0843D2BE0920709F46B
:100A500087C085319A4009F0A2C036C081372EE0A8
:100A60009207F9F02CF481339E4009F453C00895A5
:100A700080332FE0920721F080379F40C1F1089525
:100A8000E4E1F1E0A7E1B1E08C91808311968C91D3
:100A90001197818312968C918283CF010E94560414
:100AA0000895E4E1F1E0A7E1B1E013968C9113978A
:100AB000808314968C911497818315968C918283F0
:100AC000CF010E9456040895E4E1F1E0A7E1B1E00E
:100AD00016968C911697808317968C911797818321
:100AE00018968C918283CF010E9456040895E4E108
:100AF000F1E0A7E1B1E019968C91199780831A96DD
:100B00008C911A9781831B968C918283CF010E94CE
:100B100056040895E4E1F1E0A7E1B1E01C968C9160
:100B20001C9780831D968C911D9781831E968C91B6
:100B30008283CF010E9456040895E4E1F1E0A7E129
:100B4000B1E01F968C911F97808350968C9150979F
:100B5000818351968C918283CF010E94560408951F
:100B6000E4E1F1E0A7E1B1E052968C9152978083E5
:100B700053968C915397818354968C918283CF01A5
:100B80000E9456040895109272011092130110925F
:100B90006F0010926801109278010E945E03089520
:100BA000843D2BE0920709F452C0A4F485352AE075
:100BB000920709F445C024F485319A4061F152C08E
:100BC000853D2AE0920709F446C084369B4009F42B
:100BD00046C048C081372EE09207B9F044F4813313
:100BE0002EE0920731F181369E40F1F13BC0803317
:100BF0002FE0920721F080379F40A1F033C0109280
:100C0000060181E080937801089581E080930601D8
:100C100080937801089582E08093060181E08093BB
:100C20007801089583E08093060181E08093780144
:100C3000089584E08093060181E08093780108950F
:100C400085E08093060181E080937801089583E038
:100C500080937801089582E080937801089510923E
:100C60007801089510927801089581332EE092075B
:100C700009F459C04CF485312AE0920791F1853589
:100C80009A4009F461C071C080332FE0920749F0A7
:100C900080372FE09207B1F181379E4009F065C09F
:100CA00010C060930D011092060181E080937801DD
:100CB0001092700110926F00109268010E945E0302
:100CC000089560930E0181E080930601809378017E
:100CD0001092700110926F00109268010E945E03E2
:100CE000089560930F0182E08093060181E0809374
:100CF00078011092700110926F00109268010E94AA
:100D00005E0308956093100183E08093060181E003
:100D1000809378011092700110926F001092680118
:100D20000E945E0308956093110184E080930601A0
:100D300081E0809378011092700110926F00109200
:100D400068010E945E0308956093120185E080931C
:100D5000060181E0809378011092700110926F007B
:100D6000109268010E945E03089544E164E184E109
:100D70000E94020508952F923F924F925F926F92C8
:100D80007F928F929F92AF92BF92CF92DF92EF921B
:100D9000FF920F931F93CF93DF93209056013090D3
:100DA0005701409058015090590160905A0170903D
:100DB0005B0180905C0190905D01C7E0D1E0A22CC6
:100DC000B32CC42CD52CE62CF72C082D192D20E69D
:100DD00038E442E050E060E070E080E090E00E94A3
:100DE000A80A288320EE34E740E050E060E070E09D
:100DF00080E090E00E94A80A298320E53FEA40E0D5
:100E000050E060E070E080E090E00E94A80A2A8351
:100E100020EC39EE40E050E060E070E080E090E0EF
:100E20000E94A80A2B8320E63CE141E050E060E00C
:100E300070E080E090E00E94A80A2C8328EB3AE55D
:100E400041E050E060E070E080E090E00E94A80A9D
:100E50002D83DF91CF911F910F91FF90EF90DF9045
:100E6000CF90BF90AF909F908F907F906F905F904A
:100E70004F903F902F9008950E9453000E94BB0610
:100E8000219A3D983C98399877247394C6E5D1E02F
:100E90000F2EF9E78F2E912CF02D0F2EFFE62F2E1F
:100EA000312CF02D0F2EF3E74F2EF1E05F2EF02DB9
:100EB0008091680181111EC010927701109200018B
:100EC00080917801813049F028F0823049F08330F8
:100ED00071F0EECF0E947003EBCF0E94EA02E8CFE0
:100EE0006FEA7EE680E090E00E94F403E1CF0E948A
:100EF0006C04DECF8091770181111DC04FE06AE064
:100F00000E940205709277010E9444080091A50199
:100F10001091A601009392011093930110929401F5
:100F200010929501109296011092970110929801DB
:100F300010929901BDCF2091A5013091A601A090FA
:100F40009201B0909301C0909401D0909501E090EF
:100F50009601F09097010091980110919901A901D3
:100F6000352F40E050E060E070E080E090E00E94CB
:100F7000050B243F3140410551056105710581058F
:100F8000910509F008F494CF70920001FFE728E37F
:100F900081E0F15020408040E1F700C000000E9455
:100FA0002E01DC01CB018093730190937401A09317
:100FB0007501B0937601ECE2F1E020E041915191AE
:100FC00060E070E084179507A607B70709F4272D9E
:100FD000EC17FD0799F720937101222309F468CFDC
:100FE0008439EBE09E07A105B10569F420917201F7
:100FF00021113BC020917001211123C07092720118
:101000000E94CE0455CF8136FEE09F07A105B105B1
:1010100081F420917001211110C0209172012111E1
:1010200024C07092700144E164E184E10E940205F1
:101030003FCF0097A105B105A1F0209172012111C8
:1010400014C020917001211118C0F101108210927A
:1010500068010E945E03F201808191810E94D005A7
:1010600027CF20917201222319F00E94190520CF69
:1010700020917001222309F41BCFF4016081609359
:101080006F010E94350614CF82E084BD95E095BDC6
:10109000109280009AE090938100109282008093D9
:1010A0006F0080E887BD1092890084E680938800F5
:1010B000789410929E0110929D011092A4011092BA
:1010C000A3011092A00110929F011092A201109210
:1010D000A10108951F920F920FB60F9211240F9045
:1010E0000FBE0F901F9018951F920F920FB60F9280
:1010F00011242F938F939F93F8948091A501909141
:10110000A60101969093A6018093A50180919D016F
:1011100090919E01019690939E0180939D018091F4
:101120009D0190919E01883E9340E9F58091A30135
:101130009091A40101969093A4018093A301109231
:101140009E0110929D018091A3019091A401CC97E2
:1011500069F480919F019091A00101969093A00164
:1011600080939F011092A4011092A30180919F018E
:101170009091A001CC9769F48091A1019091A20176
:1011800001969093A2018093A1011092A001109268
:101190009F018091A1019091A201489721F41092A2
:1011A000A2011092A10178949F918F912F910F909D
:1011B0000FBE0F901F9018955058BB27AA270E946A
:1011C000F4080C94CC090E94BE0938F00E94C509AD
:1011D00020F039F49F3F19F426F40C94BB090EF467
:1011E000E095E7FB0C94B509E92F0E94DD0958F35F
:1011F000BA17620773078407950720F079F4A6F5FC
:101200000C94FF090EF4E0950B2EBA2FA02D0B01C4
:10121000B90190010C01CA01A0011124FF27591B3B
:1012200099F0593F50F4503E68F11A16F040A22F41
:10123000232F342F4427585FF3CF469537952795B2
:10124000A795F0405395C9F77EF41F16BA0B620BB1
:10125000730B840BBAF09150A1F0FF0FBB1F661FF8
:10126000771F881FC2F70EC0BA0F621F731F841F3B
:1012700048F4879577956795B795F7959E3F08F061
:10128000B0CF9395880F08F09927EE0F9795879523
:1012900008950E94E50988F09F5798F0B92F992783
:1012A000B751B0F0E1F0660F771F881F991F1AF051
:1012B000BA95C9F714C0B13091F00E94FF09B1E0AE
:1012C00008950C94FF09672F782F8827B85F39F0AD
:1012D000B93FCCF3869577956795B395D9F73EF4EA
:1012E00090958095709561957F4F8F4F9F4F089592
:1012F000E89409C097FB3EF49095809570956195B0
:101300007F4F8F4F9F4F9923A9F0F92F96E9BB2765
:101310009395F695879577956795B795F111F8CFE1
:10132000FAF4BB0F11F460FF1BC06F5F7F4F8F4F4C
:101330009F4F16C0882311F096E911C0772321F042
:101340009EE8872F762F05C0662371F096E8862FDA
:1013500070E060E02AF09A95660F771F881FDAF731
:10136000880F9695879597F9089597F99F6780E874
:1013700070E060E008959FEF80EC089500240A94E7
:101380001616170618060906089500240A94121660
:101390001306140605060895092E0394000C11F493
:1013A000882352F0BB0F40F4BF2B11F460FF04C040
:1013B0006F5F7F4F8F4F9F4F089557FD9058440F99
:1013C000551F59F05F3F71F04795880F97FB991FA4
:1013D00061F09F3F79F08795089512161306140661
:1013E000551FF2CF4695F1DF08C0161617061806EE
:1013F000991FF1CF86957105610508940895E894C9
:10140000BB2766277727CB0197F908950E94190A11
:101410000C94CC090E94BE0938F00E94C50920F046
:10142000952311F00C94B5090C94BB0911240C946C
:10143000000A0E94DD0970F3959FC1F3950F50E0FB
:10144000551F629FF001729FBB27F00DB11D639F76
:10145000AA27F00DB11DAA1F649F6627B00DA11D1C
:10146000661F829F2227B00DA11D621F739FB00DC2
:10147000A11D621F839FA00D611D221F749F332732
:10148000A00D611D231F849F600D211D822F762FCB
:101490006A2F11249F5750409AF0F1F088234AF0A8
:1014A000EE0FFF1FBB1F661F771F881F9150504014
:1014B000A9F79E3F510580F00C94B5090C94000AE1
:1014C0005F3FE4F3983ED4F3869577956795B7959B
:1014D000F795E7959F5FC1F7FE2B880F911D9695B5
:1014E000879597F9089597FB072E16F4009407D077
:1014F00077FD09D00E941A0B07FC05D03EF49095A9
:1015000081959F4F0895709561957F4F0895052EA1
:1015100097FB1EF400940E949E0A57FD07D00E947C
:101520002E0B07FC03D04EF40C949E0A5095409568
:10153000309521953F4F4F4F5F4F0895909580957F
:10154000709561957F4F8F4F9F4F0895689401C0AC
:10155000E8948F929F92CF93DF930E94B40ADF9119
:10156000CF919F908F90089588249924F401E401ED
:10157000B0E49F93AA279A158B049C04ED05FE0501
:10158000CF05D007A10798F4AD2FDC2FCF2FFE2F6A
:10159000E92D982C892E982F872F762F652F542F81
:1015A000432F322F2227B85031F7BF9127C01B2E6F
:1015B000BF91BB27220F331F441F551F661F771F84
:1015C000881F991F881C991CEE1FFF1FCC1FDD1F51
:1015D000AA1FBB1F8A149B04EC05FD05CE05DF0581
:1015E000A007B10748F08A189B08EC09FD09CE094D
:1015F000DF09A00BB10B21601A94E1F62EF49401DF
:10160000AF01BE01CD01000C08952A193B094C0918
:101610005D096E097F09800B910B08950024A7FDD9
:1016200000942A17300540055005600570058005B7
:1016300090050895AA1BBB1B51E107C0AA1FBB1F41
:10164000A617B70710F0A61BB70B881F991F5A954E
:10165000A9F780959095BC01CD010895A1E21A2EBD
:10166000AA1BBB1BFD010DC0AA1FBB1FEE1FFF1F46
:10167000A217B307E407F50720F0A21BB30BE40B96
:10168000F50B661F771F881F991F1A9469F76095DD
:101690007095809590959B01AC01BD01CF01089597
:0416A000F894FFCFEC
:1016A4000101050A0F14041C1C1C1C1C1C16121618
:1016B4001E191701001414C81400C8001400C8C867
:1016C40000C8000000C8C83200C8C8C8C40B940BC6
:1016D400840BB40BF40BC40B800FA10E600F910E9E
:1016E400610E200F300F710E150A700F310E550A5E
:0616F400D40BD50A640BC3
:00000001FF
