:100000000C9434000C9451000C9451000C94510049
:100010000C9479010C9451000C9451000C945100F3
:100020000C9451000C9451000C9451000C94B8099C
:100030000C9451000C9451000C94AE090C94510096
:100040000C9451000C9451000C9451000C945100EC
:100050000C9451000C942E010C9451000C945100FE
:100060000C9451000C94510011241FBECFEFD8E026
:10007000DEBFCDBF11E0A0E0B1E0ECE2F9E102C0EB
:1000800005900D92A835B107D9F721E0A8E5B1E0B8
:1000900001C01D92A33BB207E1F70E9479080C94BE
:1000A000940C0C9400007F928F929F92AF92BF921B
:1000B000CF92DF92EF92FF920F931F93CF93DF9334
:1000C00084E680937C00EAE7F0E083EA8083109284
:1000D0007B0084E08093680080936D007894808139
:1000E000806480832FEF84E39CE021508040904027
:1000F000E1F700C00000209179002223D9F130E01F
:1001000040E050E060E07EEE82E090E00E94CB0BA9
:1001100069017A01022F1D2DDE2DCF2D49015A01D3
:10012000BB0C8808982C5401B82DA82DF82D782CDC
:1001300020935801D0925901E0925A01F0925B014C
:1001400080925C0180925D0180925E0180925F01ED
:100150003D2D4E2D5F2D682D782D882D982D28361C
:10016000304141055105610571058105910509F091
:10017000E0F41FC080EA809358018FE0809359011A
:1001800010925A0110925B0110925C0110925D0175
:1001900010925E0110925F0100EA1FE0D0E0C0E023
:1001A000B0E0A0E0F0E0712C19C086E1809360011E
:1001B00034C02C2D3D2D4E2D5F2D682D782D882D92
:1001C000982D23373E404105510561057105810594
:1001D000910509F018F4109260011FC0202F312FF3
:1001E0004D2F5C2F6B2F7A2F8F2F972D24573E404A
:1001F0004109510961097109810991090F2EF6E13F
:10020000AF2EF02DB12CC12CD12CE12CF12C00E023
:1002100010E00E94EC0B20936001EAE7F0E010820E
:1002200085E680937C008BEA808310927B0084E0DB
:100230008093680080936D007894808180648083CF
:10024000DF91CF911F910F91FF90EF90DF90CF90B2
:10025000BF90AF909F908F907F9008951F920F92C4
:100260000FB60F9211248F93F894809179008937FB
:1002700018F084E18093000178948F910F900FBE65
:100280000F901F9018952091620130916301409169
:1002900064015091650160916601709167018091E0
:1002A000680190916901A0E00E94520CE9F0509120
:1002B0008D0140918E0130918F012091900110921B
:1002C0008D0110928E0110928F0110929001109268
:1002D0009101109292011092930110929401652F56
:1002E000742F832F922F089560E070E080E090E0FB
:1002F00008951F920F920FB60F921124AF92BF92E2
:10030000CF92DF92EF92FF920F931F932F933F9321
:100310004F935F936F937F938F939F93AF93BF930D
:10032000CF93DF93EF93FF9380916A01811124C0F3
:1003300010928D0110928E0110928F0110929001F7
:1003400010929101109292011092930110929401D7
:1003500081E080936A011092620110926301109211
:10036000640110926501109266011092670110926B
:10037000680110926901F1C080910101882309F49C
:10038000ECC08091B1019091B201A0908501B09034
:100390008601C0908701D0908801E0908901F0909B
:1003A0008A0100918B0110918C01282F392F40E098
:1003B00050E060E070E080E090E00E94490C209303
:1003C0009501309396014093970150939801609363
:1003D000990170939A0180939B0190939C01E6B1DF
:1003E000E695E17020919501309196014091970139
:1003F000509198016091990170919A0180919B01AF
:1004000090919C01283E33404105510561057105DD
:100410008105910599F090F010928D0110928E0156
:1004200010928F01109290011092910110929201FE
:100430001092930110929401109261011092620146
:10044000109263011092640110926501109266018E
:10045000109267011092680110926901E13009F071
:100460007CC0E09161018AEE8E0F8C3008F049C0AB
:1004700020919501309196014091970150919801FA
:100480006091990170919A0180919B0190919C01DA
:10049000A1E10E94520CA9F1A0F121E030E08AEE26
:1004A0008E0F02C0220F331F8A95E2F7832F880F29
:1004B000880B90918D01922B90938D0190918E01DC
:1004C000932B90938E0190918F01982B90938F0195
:1004D00090919001982B9093900190919101982B7D
:1004E0009093910190919201982B90939201909109
:1004F0009301982B9093930190919401892B809371
:100500009401EF5FE09361010091B1011091B2019C
:100510000093850110938601109287011092880143
:100520001092890110928A0110928B0110928C0115
:10053000E23299F481E0809362011092630110929B
:100540006401109265011092660110926701109289
:1005500068011092690110926101FF91EF91DF91A2
:10056000CF91BF91AF919F918F917F916F915F914B
:100570004F913F912F911F910F91FF90EF90DF903E
:10058000CF90BF90AF900F900FBE0F901F90189517
:100590009B01220F331F620F731F219A25B12D7FFC
:1005A00035B132604FB7F8946115710509F421C077
:1005B000FC01680F791F919188E035B997FF25B943
:1005C000990F000000C025B9000000C000C000C0A5
:1005D00000C000C000C000C000C000C000C000C01B
:1005E00000C000C000C000C08A9539F7E617F707C1
:1005F00011F74FBF85E88A95F1F700000895EF9253
:10060000FF920F931F93CF93DF930F2EF8EAEF2EF5
:10061000F1E0FF2EF02DCDE9D1E010E00AE00A87ED
:100620000987F7010083133020F0198218821A829B
:1006300004C0F70116AE15AE17AE68E170E086EAA9
:1006400091E00E94C802FFEB2AED80E0F1502040CB
:100650008040E1F700C000001F5F93E0E90EF11C4D
:1006600023961831E1F6DF91CF911F910F91FF9002
:10067000EF90089580911401882339F0E5E1F1E0CD
:1006800010828AE081838EE182838091000184312F
:1006900009F445C0E6EAF1E0A5E1B1E08C9181837F
:1006A00011968C911197808312968C91828368E1C8
:1006B00070E0CF010E94C8028FE59AEE0197F1F732
:1006C00000C0000080910001843149F1E6EAF1E0C8
:1006D000A5E1B1E08C91848311968C91119783836D
:1006E00012968C91858368E170E0CF010E94C80268
:1006F0008FE59AEE0197F1F700C0000080910001AC
:10070000843169F0E6EAF1E0A5E1B1E08C918783FC
:1007100011968C911197868312968C9180870895FB
:10072000E6EAF1E08EEE91E01182108212823396B9
:10073000E817F907C9F768E170E086EA91E00E94DE
:10074000C8020895CF939091790080916B018F5FDB
:100750008A3019F080936B0102C010926B01ECE6B5
:10076000F1E0A0916B01B0E0A459BE4F9C932081B1
:10077000818190E0820F911D2281820F911D238142
:10078000820F911D2481820F911D2581820F911D61
:100790002681820F911D2781820F911D2085820F56
:1007A000911D2185820F911D6AE070E00E94B70BB8
:1007B0007727072E000C880B990B0E94BE0A2AE9A6
:1007C00039E949E15FE30E944A0B20E030E040E76D
:1007D00051E40E94200A20E030E040E05FE30E9404
:1007E000210A0E948D0A80910201681781F0809190
:1007F0000301681761F080910401681741F080914E
:100800000501681721F08091060168130BC08091E3
:1008100084018F5F809384018E3141F460930001E5
:1008200070E005C0109284017AE001C070E08FE5AD
:100830009AEE0197F1F700C00000E6EAF1E080E0EF
:1008400090E0CAE0A62FB0E0AD014F5F5F4F119777
:10085000681731F04817590719F0A817B90721F49C
:100860007183C083728303C0118210821282019649
:1008700033968931910561F768E170E086EA91E08D
:100880000E94C802CF910895BF92CF92DF92EF925B
:10089000FF920F931F93CF93DF936B017C010E9414
:1008A0009003E6EAF1E011828EE18083128268E132
:1008B00070E0CF010E94C8022FEB8EEC92E0215035
:1008C00080409040E1F700C00000C6EAD1E001EFAF
:1008D00011E00F2EFEE1BF2EF02DC0FE0AC0B9823E
:1008E0001882BA8268E170E086EA91E00E94C8024C
:1008F00009C0198218821A8268E170E086EA91E0E4
:100900000E94C802F694E794D794C7942FE788E32F
:1009100091E0215080409040E1F700C00000239614
:10092000C017D107D1F62FEF89E698E1215080401A
:100930009040E1F700C00000DF91CF911F910F912F
:10094000FF90EF90DF90CF90BF900895FC01408121
:1009500031812281E6EAF1E08EEE91E0418330833D
:1009600022833396E817F907C9F768E170E086EA51
:1009700091E00E94C80208959F92AF92BF92CF92D9
:10098000DF92EF92FF920F931F93CF93DF9300D0EC
:100990001F92CDB7DEB790907900A0905801B0902B
:1009A0005901C0905A01D0905B01E0905C01F09039
:1009B0005D0100915E0110915F0120E230E840E0AE
:1009C00050E060E070E080E090E00E94EC0B20934B
:1009D0000C012091070130E0F901E85FFE4F6081D2
:1009E000662399F0F901E25FFE4F8081492D50E0C6
:1009F000481B510979E1749FC001759F900D112426
:100A000070E00E94B70B60939D01F901E25FFE4F19
:100A10008081292D30E090E00597281739071CF4D4
:100A20000E94FF027EC090919D0193304CF484E1BE
:100A300089831A821B82CE0101960E94A60471C08E
:100A400080916B018F5F853019F080936B0102C03C
:100A500010926B01A6E7B1E0E0916B01F0E0EA587B
:100A6000FE4F90832C9111968C91119790E0820FFC
:100A7000911D12962C911297820F911D13962C9115
:100A80001397820F911D14962C91820F911D65E092
:100A900070E00E94B70B962F60939D01623124F4A1
:100AA00081E1C82EC61A01C0C12CCC0C8C2D880F38
:100AB000880FC80E99301CF088EF860F01C080E0C7
:100AC000D82EDD0C8D2D880F880FD80E0F2EF6EA4C
:100AD000EF2EF1E0FF2EF02D00E010E080919D015F
:100AE000082E000C990B0817190754F4F701C1825E
:100AF000D0821282B80186EA91E00E94C80209C041
:100B0000F701118210821282B80186EA91E00E94F8
:100B1000C8020F5F1F4FF3E0EF0EF11C0931110502
:100B2000E9F62FE788E391E0215080409040E1F71B
:100B300000C000000F900F900F90DF91CF911F9198
:100B40000F91FF90EF90DF90CF90BF90AF909F906C
:100B50000895BF92CF92DF92EF92FF920F931F936F
:100B6000CF93DF9300D01F92CDB7DEB7D090600156
:100B7000D1100BC084E689831A821B82CE010196B4
:100B80000E94A60420E030E005C02D2D30E0223187
:100B9000310524F481E1C82EC21A01C0C12C88E0BD
:100BA0008D1530F40F2EF8EFBF2EF02DBD0C01C0C7
:100BB000B12C0F2EF6EAEF2EF1E0FF2EF02D00E023
:100BC00010E00D1550F4F701C182B0821282B80115
:100BD00086EA91E00E94C80209C0F70111821082E2
:100BE0001282B80186EA91E00E94C8020F5F1F4F8F
:100BF000F3E0EF0EF11C0931110519F70F900F907A
:100C00000F90DF91CF911F910F91FF90EF90DF90A8
:100C1000CF90BF900895CF93DF93C8E1D1E0A0E0DB
:100C2000B0E02A2FCD011396AD018A179B07A4F4DB
:100C3000788169813A81FC01EE0FFF1F8E0F9F1FA3
:100C4000FC01EA55FE4F7183608332832F5F822F50
:100C500090E0841795077CF32396A531B10509F739
:100C60001092E6011092E5011092E70168E170E050
:100C700086EA91E00E94C802DF91CF910895E6EAEA
:100C8000F1E090E090FD04C081836083428303C063
:100C90001182108212829F5F3396983199F768E132
:100CA00070E086EA91E00E94C8020895843F2BE03C
:100CB000920709F4A5C07CF485352AE0920709F46F
:100CC00079C0843D2BE0920709F487C085319A40B2
:100CD00009F0A2C036C081372EE09207F9F02CF45B
:100CE00081339E4009F453C0089580332FE092076A
:100CF00021F080379F40C1F10895E5E1F1E0A8E1DE
:100D0000B1E08C91808311968C911197818312961A
:100D10008C918283CF010E94A6040895E5E1F1E061
:100D2000A8E1B1E013968C911397808314968C916F
:100D30001497818315968C918283CF010E94A6041B
:100D40000895E5E1F1E0A8E1B1E016968C911697DF
:100D5000808317968C911797818318968C91828344
:100D6000CF010E94A6040895E5E1F1E0A8E1B1E019
:100D700019968C91199780831A968C911A97818372
:100D80001B968C918283CF010E94A6040895E5E111
:100D9000F1E0A8E1B1E01C968C911C9780831D9630
:100DA0008C911D9781831E968C918283CF010E9426
:100DB000A6040895E5E1F1E0A8E1B1E01F968C9169
:100DC0001F97808350968C915097818351968C9178
:100DD0008283CF010E94A6040895E5E1F1E0A8E135
:100DE000B1E052968C915297808353968C91539791
:100DF000818354968C918283CF010E94A60408952A
:100E000010927E011092140110926F0010926A01EC
:100E1000109200010E9490030895843D2BE09207F8
:100E200009F452C0A4F485352AE0920709F445C0BC
:100E300024F485319A4061F152C0853D2AE0920741
:100E400009F446C084369B4009F446C048C0813747
:100E50002EE09207B9F044F481332EE0920731F18D
:100E600081369E40F1F13BC080332FE0920721F0A4
:100E700080379F40A1F033C01092070181E080933A
:100E80000001089581E08093070180930001089597
:100E900082E08093070181E080930001089583E060
:100EA0008093070181E080930001089584E080939E
:100EB000070181E080930001089585E08093070198
:100EC00081E080930001089583E0809300010895FC
:100ED00082E080930001089510920001089510921D
:100EE0000001089581332EE0920709F459C04CF4B3
:100EF00085312AE0920791F185359A4009F461C065
:100F000071C080332FE0920749F080372FE09207BD
:100F1000B1F181379E4009F065C010C060930E01A9
:100F20001092070181E08093000110927C011092E1
:100F30006F0010926A010E949003089560930F0160
:100F400081E0809307018093000110927C01109250
:100F50006F0010926A010E9490030895609310013F
:100F600082E08093070181E08093000110927C0170
:100F700010926F0010926A010E949003089560938E
:100F8000110183E08093070181E0809300011092BA
:100F90007C0110926F0010926A010E9490030895E4
:100FA0006093120184E08093070181E08093000147
:100FB00010927C0110926F0010926A010E949003BF
:100FC00008956093130185E08093070181E0809389
:100FD000000110927C0110926F0010926A010E9431
:100FE0009003089544E164E184E10E943F0608957E
:100FF0002F923F924F925F926F927F928F929F9229
:10100000AF92BF92CF92DF92EF92FF920F931F9316
:10101000CF93DF93209058013090590140905A01AE
:1010200050905B0160905C0170905D0180905E016A
:1010300090905F01C8E0D1E0A22CB32CC42CD52C39
:10104000E62CF72C082D192D20E638E442E050E07C
:1010500060E070E080E090E00E94EC0B288320EEDE
:1010600034E740E050E060E070E080E090E00E9413
:10107000EC0B298320E53FEA40E050E060E070E0BF
:1010800080E090E00E94EC0B2A8320EC39EE40E0F7
:1010900050E060E070E080E090E00E94EC0B2B8379
:1010A00020E63CE141E050E060E070E080E090E06C
:1010B0000E94EC0B2C8328EB3AE541E050E060E025
:1010C00070E080E090E00E94EC0B2D83DF91CF91E7
:1010D0001F910F91FF90EF90DF90CF90BF90AF9056
:1010E0009F908F907F906F905F904F903F902F9048
:1010F00008950E9453000E94F807219A3D983C9859
:10110000399877247394C7E5D1E00F2EF9E78F2E35
:10111000912CF02D0F2EFFE62F2E312CF02D0F2EBF
:10112000FFE74F2EF1E05F2EF02D80916A018111D3
:1011300025C01092830110920101809100018A3034
:1011400099F028F4813041F0853059F0EECF8F309E
:1011500091F0843119F0E9CF0E94BC040E94A203EF
:10116000E4CF0E943A03E1CF6FEA7EE680E090E0B0
:101170000E944404DACF0E94A905D7CF8091830151
:1011800081111DC04FE06AE00E943F06709283010A
:101190000E9488090091B1011091B20100939E0153
:1011A00010939F011092A0011092A1011092A20130
:1011B0001092A3011092A4011092A501B6CF209124
:1011C000B1013091B201A0909E01B0909F01C090FA
:1011D000A001D090A101E090A201F090A3010091A4
:1011E000A4011091A501A901352F40E050E060E075
:1011F00070E080E090E00E94490C243F31404105BE
:101200005105610571058105910509F008F48DCF3F
:1012100070920101FFE728E381E0F1502040804017
:10122000E1F700C000000E944301DC01CB01809384
:101230007F0190938001A0938101B0938201EDE240
:10124000F1E020E04191519160E070E08417950752
:10125000A607B70709F4272DEC17FD0799F7209388
:101260007D01222309F461CF8439EBE09E07A105BB
:10127000B10569F420917E0121113BC020917C01D0
:10128000211123C070927E010E940B064ECF813641
:10129000FEE09F07A105B10581F420917C01211199
:1012A00010C020917E01211124C070927C0144E184
:1012B00064E184E10E943F0638CF0097A105B105A3
:1012C000A1F020917E01211114C020917C012111F7
:1012D00018C0F101108210926A010E949003F2017D
:1012E000808191810E940D0720CF20917E012223D1
:1012F00019F00E94560619CF20917C01222309F48F
:1013000014CFF401608160937B010E9472070DCFBE
:1013100082E084BD95E095BD109280009AE09093A4
:1013200081001092820080936F0080E887BD109248
:10133000890084E68093880078941092AA01109224
:10134000A9011092B0011092AF011092AC0110925D
:10135000AB011092AE011092AD0108951F920F9251
:101360000FB60F9211240F900FBE0F901F9018957B
:101370001F920F920FB60F9211242F938F939F936A
:10138000F8948091B1019091B20101969093B201CD
:101390008093B1018091A9019091AA010196909347
:1013A000AA018093A9018091A9019091AA01883E88
:1013B0009340E9F58091AF019091B001019690932F
:1013C000B0018093AF011092AA011092A9018091FF
:1013D000AF019091B001CC9769F48091AB019091ED
:1013E000AC0101969093AC018093AB011092B001D7
:1013F0001092AF018091AB019091AC01CC9769F450
:101400008091AD019091AE0101969093AE018093D1
:10141000AD011092AC011092AB018091AD019091A1
:10142000AE01489721F41092AE011092AD0178946C
:101430009F918F912F910F900FBE0F901F90189535
:101440005058BB27AA270E94380A0C94100B0E9400
:10145000020B38F00E94090B20F039F49F3F19F479
:1014600026F40C94FF0A0EF4E095E7FB0C94F90ABD
:10147000E92F0E94210B58F3BA17620773078407FC
:10148000950720F079F4A6F50C94430B0EF4E09543
:101490000B2EBA2FA02D0B01B90190010C01CA012E
:1014A000A0011124FF27591B99F0593F50F4503ED9
:1014B00068F11A16F040A22F232F342F4427585FCB
:1014C000F3CF469537952795A795F0405395C9F7E3
:1014D0007EF41F16BA0B620B730B840BBAF091509B
:1014E000A1F0FF0FBB1F661F771F881FC2F70EC03A
:1014F000BA0F621F731F841F48F48795779567950D
:10150000B795F7959E3F08F0B0CF9395880F08F0F8
:101510009927EE0F9795879508950E94290B88F0DB
:101520009F5798F0B92F9927B751B0F0E1F0660FA7
:10153000771F881F991F1AF0BA95C9F714C0B130E8
:1015400091F00E94430BB1E008950C94430B672F78
:10155000782F8827B85F39F0B93FCCF38695779517
:101560006795B395D9F73EF4909580957095619500
:101570007F4F8F4F9F4F0895E89409C097FB3EF42B
:1015800090958095709561957F4F8F4F9F4F9923D0
:10159000A9F0F92F96E9BB279395F695879577954E
:1015A0006795B795F111F8CFFAF4BB0F11F460FF0E
:1015B0001BC06F5F7F4F8F4F9F4F16C0882311F066
:1015C00096E911C0772321F09EE8872F762F05C07A
:1015D000662371F096E8862F70E060E02AF09A9515
:1015E000660F771F881FDAF7880F9695879597F90A
:1015F000089597F99F6780E870E060E008959FEF95
:1016000080EC089500240A94161617061806090699
:10161000089500240A941216130614060506089568
:10162000092E0394000C11F4882352F0BB0F40F4F0
:10163000BF2B11F460FF04C06F5F7F4F8F4F9F4F30
:10164000089557FD9058440F551F59F05F3F71F0B2
:101650004795880F97FB991F61F09F3F79F0879519
:101660000895121613061406551FF2CF4695F1DFA2
:1016700008C0161617061806991FF1CF8695710532
:10168000610508940895E894BB2766277727CB0166
:1016900097F908950E945D0B0C94100B0E94020BA9
:1016A00038F00E94090B20F0952311F00C94F90AF0
:1016B0000C94FF0A11240C94440B0E94210B70F32C
:1016C000959FC1F3950F50E0551F629FF001729FE7
:1016D000BB27F00DB11D639FAA27F00DB11DAA1FF6
:1016E000649F6627B00DA11D661F829F2227B00D43
:1016F000A11D621F739FB00DA11D621F839FA00DCE
:10170000611D221F749F3327A00D611D231F849F1D
:10171000600D211D822F762F6A2F11249F57504074
:101720009AF0F1F088234AF0EE0FFF1FBB1F661FEF
:10173000771F881F91505040A9F79E3F510580F0B8
:101740000C94F90A0C94440B5F3FE4F3983ED4F3F5
:10175000869577956795B795F795E7959F5FC1F75C
:10176000FE2B880F911D9695879597F9089597FB05
:10177000072E16F4009407D077FD09D00E945E0C66
:1017800007FC05D03EF4909581959F4F0895709584
:1017900061957F4F0895052E97FB1EF400940E94DB
:1017A000E20B57FD07D00E94720C07FC03D04EF4E9
:1017B0000C94E20B50954095309521953F4F4F4F3B
:1017C0005F4F089590958095709561957F4F8F4FED
:1017D0009F4F0895689401C0E8948F929F92CF9391
:1017E000DF930E94F80BDF91CF919F908F90089527
:1017F00088249924F401E401B0E49F93AA279A1560
:101800008B049C04ED05FE05CF05D007A10798F4D5
:10181000AD2FDC2FCF2FFE2FE92D982C892E982F5E
:10182000872F762F652F542F432F322F2227B85022
:1018300031F7BF9127C01B2EBF91BB27220F331F4B
:10184000441F551F661F771F881F991F881C991CEE
:10185000EE1FFF1FCC1FDD1FAA1FBB1F8A149B0496
:10186000EC05FD05CE05DF05A007B10748F08A1895
:101870009B08EC09FD09CE09DF09A00BB10B216023
:101880001A94E1F62EF49401AF01BE01CD01000CD3
:1018900008952A193B094C095D096E097F09800BDF
:1018A000910B08950024A7FD00942A1730054005E8
:1018B000500560057005800590050895AA1BBB1BA7
:1018C00051E107C0AA1FBB1FA617B70710F0A61B40
:1018D000B70B881F991F5A95A9F780959095BC0161
:1018E000CD010895A1E21A2EAA1BBB1BFD010DC05C
:1018F000AA1FBB1FEE1FFF1FA217B307E407F507C0
:1019000020F0A21BB30BE40BF50B661F771F881F9B
:10191000991F1A9469F760957095809590959B0131
:0C192000AC01BD01CF010895F894FFCF89
:10192C00140101050A0F14041C1C1C1C1C1C16128F
:10193C00161E261701001414C81400C8001400C881
:10194C00C800C8000000C8C83200C8C8C8C40B947E
:10195C000B840BB40BF40BC40B800FA10E600F9116
:10196C000E610E200F300F710E150A700F310E55CF
:08197C000AD40BD50A640B002C
:00000001FF
